{
  "contractName": "Griefing",
  "abi": [
    {
      "anonymous": false,
      "inputs": [
        {
          "indexed": false,
          "internalType": "address",
          "name": "user",
          "type": "address"
        },
        {
          "indexed": false,
          "internalType": "uint256",
          "name": "amount",
          "type": "uint256"
        },
        {
          "indexed": false,
          "internalType": "uint256",
          "name": "newDeposit",
          "type": "uint256"
        }
      ],
      "name": "DepositDecreased",
      "type": "event"
    },
    {
      "anonymous": false,
      "inputs": [
        {
          "indexed": false,
          "internalType": "address",
          "name": "user",
          "type": "address"
        },
        {
          "indexed": false,
          "internalType": "uint256",
          "name": "amount",
          "type": "uint256"
        },
        {
          "indexed": false,
          "internalType": "uint256",
          "name": "newDeposit",
          "type": "uint256"
        }
      ],
      "name": "DepositIncreased",
      "type": "event"
    },
    {
      "anonymous": false,
      "inputs": [
        {
          "indexed": false,
          "internalType": "address",
          "name": "punisher",
          "type": "address"
        },
        {
          "indexed": false,
          "internalType": "address",
          "name": "staker",
          "type": "address"
        },
        {
          "indexed": false,
          "internalType": "uint256",
          "name": "punishment",
          "type": "uint256"
        },
        {
          "indexed": false,
          "internalType": "uint256",
          "name": "cost",
          "type": "uint256"
        },
        {
          "indexed": false,
          "internalType": "bytes",
          "name": "message",
          "type": "bytes"
        }
      ],
      "name": "Griefed",
      "type": "event"
    },
    {
      "anonymous": false,
      "inputs": [
        {
          "indexed": false,
          "internalType": "address",
          "name": "staker",
          "type": "address"
        },
        {
          "indexed": false,
          "internalType": "uint256",
          "name": "ratio",
          "type": "uint256"
        },
        {
          "indexed": false,
          "internalType": "enum Griefing.RatioType",
          "name": "ratioType",
          "type": "uint8"
        }
      ],
      "name": "RatioSet",
      "type": "event"
    },
    {
      "anonymous": false,
      "inputs": [
        {
          "indexed": false,
          "internalType": "address",
          "name": "staker",
          "type": "address"
        },
        {
          "indexed": false,
          "internalType": "address",
          "name": "funder",
          "type": "address"
        },
        {
          "indexed": false,
          "internalType": "uint256",
          "name": "amount",
          "type": "uint256"
        }
      ],
      "name": "StakeAdded",
      "type": "event"
    },
    {
      "anonymous": false,
      "inputs": [
        {
          "indexed": false,
          "internalType": "address",
          "name": "staker",
          "type": "address"
        },
        {
          "indexed": false,
          "internalType": "uint256",
          "name": "amount",
          "type": "uint256"
        }
      ],
      "name": "StakeBurned",
      "type": "event"
    },
    {
      "anonymous": false,
      "inputs": [
        {
          "indexed": false,
          "internalType": "address",
          "name": "staker",
          "type": "address"
        },
        {
          "indexed": false,
          "internalType": "address",
          "name": "recipient",
          "type": "address"
        },
        {
          "indexed": false,
          "internalType": "uint256",
          "name": "amount",
          "type": "uint256"
        }
      ],
      "name": "StakeTaken",
      "type": "event"
    },
    {
      "constant": true,
      "inputs": [
        {
          "internalType": "address",
          "name": "user",
          "type": "address"
        }
      ],
      "name": "getDeposit",
      "outputs": [
        {
          "internalType": "uint256",
          "name": "deposit",
          "type": "uint256"
        }
      ],
      "payable": false,
      "stateMutability": "view",
      "type": "function"
    },
    {
      "constant": true,
      "inputs": [
        {
          "internalType": "address",
          "name": "staker",
          "type": "address"
        }
      ],
      "name": "getStake",
      "outputs": [
        {
          "internalType": "uint256",
          "name": "stake",
          "type": "uint256"
        }
      ],
      "payable": false,
      "stateMutability": "view",
      "type": "function"
    },
    {
      "constant": true,
      "inputs": [],
      "name": "getToken",
      "outputs": [
        {
          "internalType": "address",
          "name": "token",
          "type": "address"
        }
      ],
      "payable": false,
      "stateMutability": "pure",
      "type": "function"
    },
    {
      "constant": true,
      "inputs": [
        {
          "internalType": "address",
          "name": "staker",
          "type": "address"
        }
      ],
      "name": "getRatio",
      "outputs": [
        {
          "internalType": "uint256",
          "name": "ratio",
          "type": "uint256"
        },
        {
          "internalType": "enum Griefing.RatioType",
          "name": "ratioType",
          "type": "uint8"
        }
      ],
      "payable": false,
      "stateMutability": "view",
      "type": "function"
    },
    {
      "constant": true,
      "inputs": [
        {
          "internalType": "uint256",
          "name": "ratio",
          "type": "uint256"
        },
        {
          "internalType": "uint256",
          "name": "punishment",
          "type": "uint256"
        },
        {
          "internalType": "enum Griefing.RatioType",
          "name": "ratioType",
          "type": "uint8"
        }
      ],
      "name": "getCost",
      "outputs": [
        {
          "internalType": "uint256",
          "name": "cost",
          "type": "uint256"
        }
      ],
      "payable": false,
      "stateMutability": "pure",
      "type": "function"
    },
    {
      "constant": true,
      "inputs": [
        {
          "internalType": "uint256",
          "name": "ratio",
          "type": "uint256"
        },
        {
          "internalType": "uint256",
          "name": "cost",
          "type": "uint256"
        },
        {
          "internalType": "enum Griefing.RatioType",
          "name": "ratioType",
          "type": "uint8"
        }
      ],
      "name": "getPunishment",
      "outputs": [
        {
          "internalType": "uint256",
          "name": "punishment",
          "type": "uint256"
        }
      ],
      "payable": false,
      "stateMutability": "pure",
      "type": "function"
    }
  ],
  "bytecode": "0x608060405234801561001057600080fd5b506107c5806100206000396000f3fe608060405234801561001057600080fd5b50600436106100625760003560e01c806321df0da714610067578063465b414e146100b15780635baeb8061461010a578063754b2707146101635780637a766460146101d0578063e1254fba14610228575b600080fd5b61006f610280565b604051808273ffffffffffffffffffffffffffffffffffffffff1673ffffffffffffffffffffffffffffffffffffffff16815260200191505060405180910390f35b6100f4600480360360608110156100c757600080fd5b810190808035906020019092919080359060200190929190803560ff16906020019092919050505061029c565b6040518082815260200191505060405180910390f35b61014d6004803603606081101561012057600080fd5b810190808035906020019092919080359060200190929190803560ff169060200190929190505050610387565b6040518082815260200191505060405180910390f35b6101a56004803603602081101561017957600080fd5b81019080803573ffffffffffffffffffffffffffffffffffffffff1690602001909291905050506104ba565b604051808381526020018260028111156101bb57fe5b60ff1681526020019250505060405180910390f35b610212600480360360208110156101e657600080fd5b81019080803573ffffffffffffffffffffffffffffffffffffffff169060200190929190505050610559565b6040518082815260200191505060405180910390f35b61026a6004803603602081101561023e57600080fd5b81019080803573ffffffffffffffffffffffffffffffffffffffff16906020019092919050505061056b565b6040518082815260200191505060405180910390f35b6000731776e1f26f98b1a5df9cd347953a26dd3cb46671905090565b60006002808111156102aa57fe5b8260028111156102b657fe5b14156102e7576012600a0a6102d86102d2856012600a0a6105b3565b86610639565b816102df57fe5b049050610380565b600160028111156102f457fe5b82600281111561030057fe5b141561030f5760009050610380565b6000600281111561031c57fe5b82600281111561032857fe5b141561037f576040517f08c379a00000000000000000000000000000000000000000000000000000000081526004018080602001828103825260218152602001806107706021913960400191505060405180910390fd5b5b9392505050565b600060028081111561039557fe5b8260028111156103a157fe5b14156103d2576012600a0a6103c36103bd856012600a0a6105b3565b86610671565b816103ca57fe5b0490506104b3565b600160028111156103df57fe5b8260028111156103eb57fe5b1415610442576040517f08c379a000000000000000000000000000000000000000000000000000000000815260040180806020018281038252602181526020018061072e6021913960400191505060405180910390fd5b6000600281111561044f57fe5b82600281111561045b57fe5b14156104b2576040517f08c379a00000000000000000000000000000000000000000000000000000000081526004018080602001828103825260218152602001806107706021913960400191505060405180910390fd5b5b9392505050565b600080600160008473ffffffffffffffffffffffffffffffffffffffff1673ffffffffffffffffffffffffffffffffffffffff16815260200190815260200160002060000154600160008573ffffffffffffffffffffffffffffffffffffffff1673ffffffffffffffffffffffffffffffffffffffff16815260200190815260200160002060010160009054906101000a900460ff1691509150915091565b60006105648261056b565b9050919050565b60008060008373ffffffffffffffffffffffffffffffffffffffff1673ffffffffffffffffffffffffffffffffffffffff168152602001908152602001600020549050919050565b6000808314156105c65760009050610633565b60008284029050828482816105d757fe5b041461062e576040517f08c379a000000000000000000000000000000000000000000000000000000000815260040180806020018281038252602181526020018061074f6021913960400191505060405180910390fd5b809150505b92915050565b60006012600a0a61066161064d85856105b3565b60026012600a0a8161065b57fe5b046106a5565b8161066857fe5b04905092915050565b600081610695610685856012600a0a6105b3565b6002858161068f57fe5b046106a5565b8161069c57fe5b04905092915050565b600080828401905083811015610723576040517f08c379a000000000000000000000000000000000000000000000000000000000815260040180806020018281038252601b8152602001807f536166654d6174683a206164646974696f6e206f766572666c6f77000000000081525060200191505060405180910390fd5b809150509291505056fe726174696f547970652063616e6e6f7420626520526174696f547970652e496e66536166654d6174683a206d756c7469706c69636174696f6e206f766572666c6f77726174696f547970652063616e6e6f7420626520526174696f547970652e4e614ea265627a7a72315820cdd0ec54d4dfd5635258886ec0af4ca202d41c1fef21149a187c92ba06f7dc6d64736f6c634300050d0032",
  "source": "pragma solidity ^0.5.13;\n\nimport \"../helpers/DecimalMath.sol\";\nimport \"./Staking.sol\";\n\n\n/// @title Griefing\n/// @author Stephane Gosselin (@thegostep) for Numerai Inc\n/// @dev Security contact: security@numer.ai\n/// @dev Version: 1.2.0\n/// @dev State Machine: https://github.com/erasureprotocol/erasure-protocol/blob/v1.2.0/docs/state-machines/modules/Griefing.png\ncontract Griefing is Staking {\n\n    enum RatioType { NaN, Inf, Dec }\n\n    mapping (address => GriefRatio) private _griefRatio;\n    struct GriefRatio {\n        uint256 ratio;\n        RatioType ratioType;\n   }\n\n    event RatioSet(address staker, uint256 ratio, RatioType ratioType);\n    event Griefed(address punisher, address staker, uint256 punishment, uint256 cost, bytes message);\n\n    uint256 internal constant e18 = uint256(10) ** uint256(18);\n\n    // state functions\n\n    /// @notice Set the grief ratio and type for a given staker\n    /// @param staker Address of the staker\n    /// @param ratio Uint256 number (18 decimals)\n    ///              NOTE: ratio must be 0 if ratioType is Inf or NaN\n    /// @param ratioType Griefing.RatioType number. Ratio Type must be one of the following three values:\n    ///                   - Dec: Ratio is a decimal number with 18 decimals\n    ///                   - Inf: Punishment at no cost\n    ///                   - NaN: No Punishment\n    function _setRatio(address staker, uint256 ratio, RatioType ratioType) internal {\n        if (ratioType == RatioType.NaN || ratioType == RatioType.Inf) {\n            require(ratio == 0, \"ratio must be 0 when ratioType is NaN or Inf\");\n        }\n\n        // set data in storage\n        _griefRatio[staker].ratio = ratio;\n        _griefRatio[staker].ratioType = ratioType;\n\n        // emit event\n        emit RatioSet(staker, ratio, ratioType);\n    }\n\n    /// @notice Punish a stake through griefing\n    ///         NOTE: the cost of the punishment is taken form the account of the punisher. This therefore requires appropriate ERC-20 token approval.\n    /// @param punisher Address of the punisher\n    /// @param staker Address of the staker\n    /// @param punishment Amount of NMR (18 decimals) to punish\n    /// @param message Bytes reason string for the punishment\n    /// @return cost Amount of NMR (18 decimals) to pay\n    function _grief(\n        address punisher,\n        address staker,\n        uint256 punishment,\n        bytes memory message\n    ) internal returns (uint256 cost) {\n        // get grief data from storage\n        uint256 ratio = _griefRatio[staker].ratio;\n        RatioType ratioType = _griefRatio[staker].ratioType;\n\n        require(ratioType != RatioType.NaN, \"no punishment allowed\");\n\n        // calculate cost\n        // getCost also acts as a guard when _setRatio is not called before\n        cost = getCost(ratio, punishment, ratioType);\n\n        // burn the cost from the punisher's balance\n        BurnNMR._burnFrom(punisher, cost);\n\n        // burn the punishment from the target's stake\n        Staking._burnStake(staker, punishment);\n\n        // emit event\n        emit Griefed(punisher, staker, punishment, cost, message);\n\n        // return\n        return cost;\n    }\n\n    // view functions\n\n    /// @notice Get the ratio of a staker\n    /// @param staker Address of the staker\n    /// @return ratio Uint256 number (18 decimals)\n    /// @return ratioType Griefing.RatioType number. Ratio Type must be one of the following three values:\n    ///                   - Dec: Ratio is a decimal number with 18 decimals\n    ///                   - Inf: Punishment at no cost\n    ///                   - NaN: No Punishment\n    function getRatio(address staker) public view returns (uint256 ratio, RatioType ratioType) {\n        // get stake data from storage\n        return (_griefRatio[staker].ratio, _griefRatio[staker].ratioType);\n    }\n\n    // pure functions\n\n    /// @notice Get exact cost for a given punishment and ratio\n    /// @param ratio Uint256 number (18 decimals)\n    /// @param punishment Amount of NMR (18 decimals) to punish\n    /// @param ratioType Griefing.RatioType number. Ratio Type must be one of the following three values:\n    ///                   - Dec: Ratio is a decimal number with 18 decimals\n    ///                   - Inf: Punishment at no cost\n    ///                   - NaN: No Punishment\n    /// @return cost Amount of NMR (18 decimals) to pay\n    function getCost(uint256 ratio, uint256 punishment, RatioType ratioType) public pure returns(uint256 cost) {\n        if (ratioType == RatioType.Dec) {\n            return DecimalMath.mul(SafeMath.mul(punishment, e18), ratio) / e18;\n        }\n        if (ratioType == RatioType.Inf)\n            return 0;\n        if (ratioType == RatioType.NaN)\n            revert(\"ratioType cannot be RatioType.NaN\");\n    }\n\n    /// @notice Get approximate punishment for a given cost and ratio.\n    ///         The punishment is an approximate value due to quantization / rounding.\n    /// @param ratio Uint256 number (18 decimals)\n    /// @param cost Amount of NMR (18 decimals) to pay\n    /// @param ratioType Griefing.RatioType number. Ratio Type must be one of the following three values:\n    ///                   - Dec: Ratio is a decimal number with 18 decimals\n    ///                   - Inf: Punishment at no cost\n    ///                   - NaN: No Punishment\n    /// @return punishment Approximate amount of NMR (18 decimals) to punish\n    function getPunishment(uint256 ratio, uint256 cost, RatioType ratioType) public pure returns(uint256 punishment) {\n        if (ratioType == RatioType.Dec) {\n            return DecimalMath.div(SafeMath.mul(cost, e18), ratio) / e18;\n        }\n        if (ratioType == RatioType.Inf)\n            revert(\"ratioType cannot be RatioType.Inf\");\n        if (ratioType == RatioType.NaN)\n            revert(\"ratioType cannot be RatioType.NaN\");\n    }\n\n}\n",
  "sourcePath": "/Users/mikhail/Coding/erasure/contracts/modules/Griefing.sol",
  "compiler": {
    "name": "solc",
    "version": "0.5.13+commit.5b0b510c.Emscripten.clang",
    "optimizer": false,
    "runs": 200
  },
  "schemaVersion": "2.2.0",
  "updatedAt": "2019-12-03T12:04:31.610Z"
}