{
  "contractName": "Registry",
  "abi": [
    {
      "inputs": [
        {
          "internalType": "string",
          "name": "instanceType",
          "type": "string"
        }
      ],
      "payable": false,
      "stateMutability": "nonpayable",
      "type": "constructor"
    },
    {
      "anonymous": false,
      "inputs": [
        {
          "indexed": false,
          "internalType": "address",
          "name": "owner",
          "type": "address"
        },
        {
          "indexed": false,
          "internalType": "address",
          "name": "factory",
          "type": "address"
        },
        {
          "indexed": false,
          "internalType": "uint256",
          "name": "factoryID",
          "type": "uint256"
        },
        {
          "indexed": false,
          "internalType": "bytes",
          "name": "extraData",
          "type": "bytes"
        }
      ],
      "name": "FactoryAdded",
      "type": "event"
    },
    {
      "anonymous": false,
      "inputs": [
        {
          "indexed": false,
          "internalType": "address",
          "name": "owner",
          "type": "address"
        },
        {
          "indexed": false,
          "internalType": "address",
          "name": "factory",
          "type": "address"
        },
        {
          "indexed": false,
          "internalType": "uint256",
          "name": "factoryID",
          "type": "uint256"
        }
      ],
      "name": "FactoryRetired",
      "type": "event"
    },
    {
      "anonymous": false,
      "inputs": [
        {
          "indexed": true,
          "internalType": "address",
          "name": "instance",
          "type": "address"
        },
        {
          "indexed": true,
          "internalType": "address",
          "name": "factory",
          "type": "address"
        },
        {
          "indexed": true,
          "internalType": "address",
          "name": "creator",
          "type": "address"
        },
        {
          "indexed": false,
          "internalType": "uint256",
          "name": "instanceIndex",
          "type": "uint256"
        },
        {
          "indexed": false,
          "internalType": "uint256",
          "name": "factoryID",
          "type": "uint256"
        }
      ],
      "name": "InstanceRegistered",
      "type": "event"
    },
    {
      "anonymous": false,
      "inputs": [
        {
          "indexed": true,
          "internalType": "address",
          "name": "previousOwner",
          "type": "address"
        },
        {
          "indexed": true,
          "internalType": "address",
          "name": "newOwner",
          "type": "address"
        }
      ],
      "name": "OwnershipTransferred",
      "type": "event"
    },
    {
      "constant": true,
      "inputs": [],
      "name": "isOwner",
      "outputs": [
        {
          "internalType": "bool",
          "name": "",
          "type": "bool"
        }
      ],
      "payable": false,
      "stateMutability": "view",
      "type": "function"
    },
    {
      "constant": true,
      "inputs": [],
      "name": "owner",
      "outputs": [
        {
          "internalType": "address",
          "name": "",
          "type": "address"
        }
      ],
      "payable": false,
      "stateMutability": "view",
      "type": "function"
    },
    {
      "constant": false,
      "inputs": [],
      "name": "renounceOwnership",
      "outputs": [],
      "payable": false,
      "stateMutability": "nonpayable",
      "type": "function"
    },
    {
      "constant": false,
      "inputs": [
        {
          "internalType": "address",
          "name": "newOwner",
          "type": "address"
        }
      ],
      "name": "transferOwnership",
      "outputs": [],
      "payable": false,
      "stateMutability": "nonpayable",
      "type": "function"
    },
    {
      "constant": false,
      "inputs": [
        {
          "internalType": "address",
          "name": "factory",
          "type": "address"
        },
        {
          "internalType": "bytes",
          "name": "extraData",
          "type": "bytes"
        }
      ],
      "name": "addFactory",
      "outputs": [],
      "payable": false,
      "stateMutability": "nonpayable",
      "type": "function"
    },
    {
      "constant": false,
      "inputs": [
        {
          "internalType": "address",
          "name": "factory",
          "type": "address"
        }
      ],
      "name": "retireFactory",
      "outputs": [],
      "payable": false,
      "stateMutability": "nonpayable",
      "type": "function"
    },
    {
      "constant": true,
      "inputs": [],
      "name": "getFactoryCount",
      "outputs": [
        {
          "internalType": "uint256",
          "name": "count",
          "type": "uint256"
        }
      ],
      "payable": false,
      "stateMutability": "view",
      "type": "function"
    },
    {
      "constant": true,
      "inputs": [
        {
          "internalType": "address",
          "name": "factory",
          "type": "address"
        }
      ],
      "name": "getFactoryStatus",
      "outputs": [
        {
          "internalType": "enum Registry.FactoryStatus",
          "name": "status",
          "type": "uint8"
        }
      ],
      "payable": false,
      "stateMutability": "view",
      "type": "function"
    },
    {
      "constant": true,
      "inputs": [
        {
          "internalType": "address",
          "name": "factory",
          "type": "address"
        }
      ],
      "name": "getFactoryID",
      "outputs": [
        {
          "internalType": "uint16",
          "name": "factoryID",
          "type": "uint16"
        }
      ],
      "payable": false,
      "stateMutability": "view",
      "type": "function"
    },
    {
      "constant": true,
      "inputs": [
        {
          "internalType": "address",
          "name": "factory",
          "type": "address"
        }
      ],
      "name": "getFactoryData",
      "outputs": [
        {
          "internalType": "bytes",
          "name": "extraData",
          "type": "bytes"
        }
      ],
      "payable": false,
      "stateMutability": "view",
      "type": "function"
    },
    {
      "constant": true,
      "inputs": [
        {
          "internalType": "uint16",
          "name": "factoryID",
          "type": "uint16"
        }
      ],
      "name": "getFactoryAddress",
      "outputs": [
        {
          "internalType": "address",
          "name": "factory",
          "type": "address"
        }
      ],
      "payable": false,
      "stateMutability": "view",
      "type": "function"
    },
    {
      "constant": true,
      "inputs": [
        {
          "internalType": "address",
          "name": "factory",
          "type": "address"
        }
      ],
      "name": "getFactory",
      "outputs": [
        {
          "internalType": "enum Registry.FactoryStatus",
          "name": "status",
          "type": "uint8"
        },
        {
          "internalType": "uint16",
          "name": "factoryID",
          "type": "uint16"
        },
        {
          "internalType": "bytes",
          "name": "extraData",
          "type": "bytes"
        }
      ],
      "payable": false,
      "stateMutability": "view",
      "type": "function"
    },
    {
      "constant": true,
      "inputs": [],
      "name": "getFactories",
      "outputs": [
        {
          "internalType": "address[]",
          "name": "factories",
          "type": "address[]"
        }
      ],
      "payable": false,
      "stateMutability": "view",
      "type": "function"
    },
    {
      "constant": true,
      "inputs": [
        {
          "internalType": "uint256",
          "name": "startIndex",
          "type": "uint256"
        },
        {
          "internalType": "uint256",
          "name": "endIndex",
          "type": "uint256"
        }
      ],
      "name": "getPaginatedFactories",
      "outputs": [
        {
          "internalType": "address[]",
          "name": "factories",
          "type": "address[]"
        }
      ],
      "payable": false,
      "stateMutability": "view",
      "type": "function"
    },
    {
      "constant": false,
      "inputs": [
        {
          "internalType": "address",
          "name": "instance",
          "type": "address"
        },
        {
          "internalType": "address",
          "name": "creator",
          "type": "address"
        },
        {
          "internalType": "uint80",
          "name": "extraData",
          "type": "uint80"
        }
      ],
      "name": "register",
      "outputs": [],
      "payable": false,
      "stateMutability": "nonpayable",
      "type": "function"
    },
    {
      "constant": true,
      "inputs": [],
      "name": "getInstanceType",
      "outputs": [
        {
          "internalType": "bytes4",
          "name": "instanceType",
          "type": "bytes4"
        }
      ],
      "payable": false,
      "stateMutability": "view",
      "type": "function"
    },
    {
      "constant": true,
      "inputs": [],
      "name": "getInstanceCount",
      "outputs": [
        {
          "internalType": "uint256",
          "name": "count",
          "type": "uint256"
        }
      ],
      "payable": false,
      "stateMutability": "view",
      "type": "function"
    },
    {
      "constant": true,
      "inputs": [
        {
          "internalType": "uint256",
          "name": "index",
          "type": "uint256"
        }
      ],
      "name": "getInstance",
      "outputs": [
        {
          "internalType": "address",
          "name": "instance",
          "type": "address"
        }
      ],
      "payable": false,
      "stateMutability": "view",
      "type": "function"
    },
    {
      "constant": true,
      "inputs": [
        {
          "internalType": "uint256",
          "name": "index",
          "type": "uint256"
        }
      ],
      "name": "getInstanceData",
      "outputs": [
        {
          "internalType": "address",
          "name": "instanceAddress",
          "type": "address"
        },
        {
          "internalType": "uint16",
          "name": "factoryID",
          "type": "uint16"
        },
        {
          "internalType": "uint80",
          "name": "extraData",
          "type": "uint80"
        }
      ],
      "payable": false,
      "stateMutability": "view",
      "type": "function"
    },
    {
      "constant": true,
      "inputs": [],
      "name": "getInstances",
      "outputs": [
        {
          "internalType": "address[]",
          "name": "instances",
          "type": "address[]"
        }
      ],
      "payable": false,
      "stateMutability": "view",
      "type": "function"
    },
    {
      "constant": true,
      "inputs": [
        {
          "internalType": "uint256",
          "name": "startIndex",
          "type": "uint256"
        },
        {
          "internalType": "uint256",
          "name": "endIndex",
          "type": "uint256"
        }
      ],
      "name": "getPaginatedInstances",
      "outputs": [
        {
          "internalType": "address[]",
          "name": "instances",
          "type": "address[]"
        }
      ],
      "payable": false,
      "stateMutability": "view",
      "type": "function"
    }
  ],
  "bytecode": "0x60806040523480156200001157600080fd5b50604051620022c1380380620022c1833981810160405260208110156200003757600080fd5b81019080805160405193929190846401000000008211156200005857600080fd5b838201915060208201858111156200006f57600080fd5b82518660018202830111640100000000821117156200008d57600080fd5b8083526020830192505050908051906020019080838360005b83811015620000c3578082015181840152602081019050620000a6565b50505050905090810190601f168015620000f15780820380516001836020036101000a031916815260200191505b50604052505050336000806101000a81548173ffffffffffffffffffffffffffffffffffffffff021916908373ffffffffffffffffffffffffffffffffffffffff1602179055506000809054906101000a900473ffffffffffffffffffffffffffffffffffffffff1673ffffffffffffffffffffffffffffffffffffffff16600073ffffffffffffffffffffffffffffffffffffffff167f8be0079c531659141344cd1fd0a4f28419497f9722a3daafe3b4186f6b6457e060405160405180910390a38080519060200120600360006101000a81548163ffffffff021916908360e01c0217905550506120d780620001ea6000396000f3fe608060405234801561001057600080fd5b50600436106101375760003560e01c80638f32d59b116100b8578063d10474341161007c578063d10474341461076c578063d35fdd791461078a578063ebd348de146107e9578063f12d27bf14610857578063f2fde38b146108f3578063f795ab751461093757610137565b80638f32d59b146105c5578063a826eb1e146105e7578063ae34325c14610647578063b71f2e7214610665578063bba83f64146106f257610137565b806363e5a670116100ff57806363e5a67014610441578063715018a6146104855780637e6cbb6a1461048f57806386609652146104ee5780638da5cb5b1461057b57610137565b806314ad01441461013c57806318c2f4cf146101d557806332e04be31461023157806345bdfb1e146102a35780635e994dca14610360575b600080fd5b6101d36004803603604081101561015257600080fd5b81019080803573ffffffffffffffffffffffffffffffffffffffff1690602001909291908035906020019064010000000081111561018f57600080fd5b8201836020820111156101a157600080fd5b803590602001918460018302840111640100000000831117156101c357600080fd5b909192939192939050505061099d565b005b6101dd610c81565b60405180827bffffffffffffffffffffffffffffffffffffffffffffffffffffffff19167bffffffffffffffffffffffffffffffffffffffffffffffffffffffff1916815260200191505060405180910390f35b6102616004803603602081101561024757600080fd5b81019080803561ffff169060200190929190505050610c98565b604051808273ffffffffffffffffffffffffffffffffffffffff1673ffffffffffffffffffffffffffffffffffffffff16815260200191505060405180910390f35b6102e5600480360360208110156102b957600080fd5b81019080803573ffffffffffffffffffffffffffffffffffffffff169060200190929190505050610cdd565b6040518080602001828103825283818151815260200191508051906020019080838360005b8381101561032557808201518184015260208101905061030a565b50505050905090810190601f1680156103525780820380516001836020036101000a031916815260200191505b509250505060405180910390f35b6103a26004803603602081101561037657600080fd5b81019080803573ffffffffffffffffffffffffffffffffffffffff169060200190929190505050610dc1565b604051808460028111156103b257fe5b60ff1681526020018361ffff1661ffff16815260200180602001828103825283818151815260200191508051906020019080838360005b838110156104045780820151818401526020810190506103e9565b50505050905090810190601f1680156104315780820380516001836020036101000a031916815260200191505b5094505050505060405180910390f35b6104836004803603602081101561045757600080fd5b81019080803573ffffffffffffffffffffffffffffffffffffffff169060200190929190505050610f29565b005b61048d611145565b005b61049761127e565b6040518080602001828103825283818151815260200191508051906020019060200280838360005b838110156104da5780820151818401526020810190506104bf565b505050509050019250505060405180910390f35b6105246004803603604081101561050457600080fd5b81019080803590602001909291908035906020019092919050505061130c565b6040518080602001828103825283818151815260200191508051906020019060200280838360005b8381101561056757808201518184015260208101905061054c565b505050509050019250505060405180910390f35b6105836114bd565b604051808273ffffffffffffffffffffffffffffffffffffffff1673ffffffffffffffffffffffffffffffffffffffff16815260200191505060405180910390f35b6105cd6114e6565b604051808215151515815260200191505060405180910390f35b610629600480360360208110156105fd57600080fd5b81019080803573ffffffffffffffffffffffffffffffffffffffff16906020019092919050505061153d565b604051808261ffff1661ffff16815260200191505060405180910390f35b61064f611597565b6040518082815260200191505060405180910390f35b61069b6004803603604081101561067b57600080fd5b8101908080359060200190929190803590602001909291905050506115a4565b6040518080602001828103825283818151815260200191508051906020019060200280838360005b838110156106de5780820151818401526020810190506106c3565b505050509050019250505060405180910390f35b61076a6004803603606081101561070857600080fd5b81019080803573ffffffffffffffffffffffffffffffffffffffff169060200190929190803573ffffffffffffffffffffffffffffffffffffffff169060200190929190803569ffffffffffffffffffff169060200190929190505050611758565b005b610774611999565b6040518082815260200191505060405180910390f35b6107926119a6565b6040518080602001828103825283818151815260200191508051906020019060200280838360005b838110156107d55780820151818401526020810190506107ba565b505050509050019250505060405180910390f35b610815600480360360208110156107ff57600080fd5b8101908080359060200190929190505050611a8b565b604051808273ffffffffffffffffffffffffffffffffffffffff1673ffffffffffffffffffffffffffffffffffffffff16815260200191505060405180910390f35b6108836004803603602081101561086d57600080fd5b8101908080359060200190929190505050611b49565b604051808473ffffffffffffffffffffffffffffffffffffffff1673ffffffffffffffffffffffffffffffffffffffff1681526020018361ffff1661ffff1681526020018269ffffffffffffffffffff1669ffffffffffffffffffff168152602001935050505060405180910390f35b6109356004803603602081101561090957600080fd5b81019080803573ffffffffffffffffffffffffffffffffffffffff169060200190929190505050611cbf565b005b6109796004803603602081101561094d57600080fd5b81019080803573ffffffffffffffffffffffffffffffffffffffff169060200190929190505050611d45565b6040518082600281111561098957fe5b60ff16815260200191505060405180910390f35b6109a56114e6565b610a17576040517f08c379a00000000000000000000000000000000000000000000000000000000081526004018080602001828103825260208152602001807f4f776e61626c653a2063616c6c6572206973206e6f7420746865206f776e657281525060200191505060405180910390fd5b6000600260008573ffffffffffffffffffffffffffffffffffffffff1673ffffffffffffffffffffffffffffffffffffffff168152602001908152602001600020905060006002811115610a6757fe5b8160000160009054906101000a900460ff166002811115610a8457fe5b14610ada576040517f08c379a00000000000000000000000000000000000000000000000000000000081526004018080602001828103825260368152602001806120256036913960400191505060405180910390fd5b6000600180549050905060018260000160006101000a81548160ff02191690836002811115610b0557fe5b0217905550808260000160016101000a81548161ffff021916908361ffff1602179055508383836001019190610b3c929190611ee2565b5060018590806001815401808255809150509060018203906000526020600020016000909192909190916101000a81548173ffffffffffffffffffffffffffffffffffffffff021916908373ffffffffffffffffffffffffffffffffffffffff160217905550507f2b60b760542791ba21c4029237f2aa264a5731131d53872f4689f7113e8a77043386838787604051808673ffffffffffffffffffffffffffffffffffffffff1673ffffffffffffffffffffffffffffffffffffffff1681526020018573ffffffffffffffffffffffffffffffffffffffff1673ffffffffffffffffffffffffffffffffffffffff1681526020018461ffff168152602001806020018281038252848482818152602001925080828437600081840152601f19601f820116905080830192505050965050505050505060405180910390a15050505050565b6000600360009054906101000a900460e01b905090565b600060018261ffff1681548110610cab57fe5b9060005260206000200160009054906101000a900473ffffffffffffffffffffffffffffffffffffffff169050919050565b6060600260008373ffffffffffffffffffffffffffffffffffffffff1673ffffffffffffffffffffffffffffffffffffffff1681526020019081526020016000206001018054600181600116156101000203166002900480601f016020809104026020016040519081016040528092919081815260200182805460018160011615610100020316600290048015610db55780601f10610d8a57610100808354040283529160200191610db5565b820191906000526020600020905b815481529060010190602001808311610d9857829003601f168201915b50505050509050919050565b6000806060610dce611f62565b600260008673ffffffffffffffffffffffffffffffffffffffff1673ffffffffffffffffffffffffffffffffffffffff1681526020019081526020016000206040518060600160405290816000820160009054906101000a900460ff166002811115610e3657fe5b6002811115610e4157fe5b81526020016000820160019054906101000a900461ffff1661ffff1661ffff168152602001600182018054600181600116156101000203166002900480601f016020809104026020016040519081016040528092919081815260200182805460018160011615610100020316600290048015610efe5780601f10610ed357610100808354040283529160200191610efe565b820191906000526020600020905b815481529060010190602001808311610ee157829003601f168201915b5050505050815250509050806000015181602001518260400151809050935093509350509193909250565b610f316114e6565b610fa3576040517f08c379a00000000000000000000000000000000000000000000000000000000081526004018080602001828103825260208152602001807f4f776e61626c653a2063616c6c6572206973206e6f7420746865206f776e657281525060200191505060405180910390fd5b6000600260008373ffffffffffffffffffffffffffffffffffffffff1673ffffffffffffffffffffffffffffffffffffffff168152602001908152602001600020905060016002811115610ff357fe5b8160000160009054906101000a900460ff16600281111561101057fe5b14611066576040517f08c379a00000000000000000000000000000000000000000000000000000000081526004018080602001828103825260238152602001806120806023913960400191505060405180910390fd5b60028160000160006101000a81548160ff0219169083600281111561108757fe5b02179055507fb2efe2b3bb8a6c15454da20cd3d82d0380c15bc3df9ebbb767ddeca18b75e3a833838360000160019054906101000a900461ffff16604051808473ffffffffffffffffffffffffffffffffffffffff1673ffffffffffffffffffffffffffffffffffffffff1681526020018373ffffffffffffffffffffffffffffffffffffffff1673ffffffffffffffffffffffffffffffffffffffff1681526020018261ffff168152602001935050505060405180910390a15050565b61114d6114e6565b6111bf576040517f08c379a00000000000000000000000000000000000000000000000000000000081526004018080602001828103825260208152602001807f4f776e61626c653a2063616c6c6572206973206e6f7420746865206f776e657281525060200191505060405180910390fd5b600073ffffffffffffffffffffffffffffffffffffffff166000809054906101000a900473ffffffffffffffffffffffffffffffffffffffff1673ffffffffffffffffffffffffffffffffffffffff167f8be0079c531659141344cd1fd0a4f28419497f9722a3daafe3b4186f6b6457e060405160405180910390a360008060006101000a81548173ffffffffffffffffffffffffffffffffffffffff021916908373ffffffffffffffffffffffffffffffffffffffff160217905550565b6060600180548060200260200160405190810160405280929190818152602001828054801561130257602002820191906000526020600020905b8160009054906101000a900473ffffffffffffffffffffffffffffffffffffffff1673ffffffffffffffffffffffffffffffffffffffff16815260200190600101908083116112b8575b5050505050905090565b6060818310611366576040517f08c379a000000000000000000000000000000000000000000000000000000000815260040180806020018281038252602581526020018061205b6025913960400191505060405180910390fd5b6001805490508211156113e1576040517f08c379a00000000000000000000000000000000000000000000000000000000081526004018080602001828103825260168152602001807f656e6420696e646578206f7574206f662072616e67650000000000000000000081525060200191505060405180910390fd5b60608383036040519080825280602002602001820160405280156114145781602001602082028038833980820191505090505b50905060008490505b838110156114b2576001818154811061143257fe5b9060005260206000200160009054906101000a900473ffffffffffffffffffffffffffffffffffffffff16828683038151811061146b57fe5b602002602001019073ffffffffffffffffffffffffffffffffffffffff16908173ffffffffffffffffffffffffffffffffffffffff1681525050808060010191505061141d565b508091505092915050565b60008060009054906101000a900473ffffffffffffffffffffffffffffffffffffffff16905090565b60008060009054906101000a900473ffffffffffffffffffffffffffffffffffffffff1673ffffffffffffffffffffffffffffffffffffffff163373ffffffffffffffffffffffffffffffffffffffff1614905090565b6000600260008373ffffffffffffffffffffffffffffffffffffffff1673ffffffffffffffffffffffffffffffffffffffff16815260200190815260200160002060000160019054906101000a900461ffff169050919050565b6000600480549050905090565b60608183106115fe576040517f08c379a000000000000000000000000000000000000000000000000000000000815260040180806020018281038252602581526020018061205b6025913960400191505060405180910390fd5b600480549050821115611679576040517f08c379a00000000000000000000000000000000000000000000000000000000081526004018080602001828103825260168152602001807f656e6420696e646578206f7574206f662072616e67650000000000000000000081525060200191505060405180910390fd5b60608383036040519080825280602002602001820160405280156116ac5781602001602082028038833980820191505090505b50905060008490505b8381101561174d57600481815481106116ca57fe5b9060005260206000200160000160009054906101000a900473ffffffffffffffffffffffffffffffffffffffff16828683038151811061170657fe5b602002602001019073ffffffffffffffffffffffffffffffffffffffff16908173ffffffffffffffffffffffffffffffffffffffff168152505080806001019150506116b5565b508091505092915050565b60008061176433610dc1565b50915091506001600281111561177657fe5b82600281111561178257fe5b146117f5576040517f08c379a00000000000000000000000000000000000000000000000000000000081526004018080602001828103825260178152602001807f666163746f727920696e2077726f6e672073746174757300000000000000000081525060200191505060405180910390fd5b60006004805490509050600460405180606001604052808873ffffffffffffffffffffffffffffffffffffffff1681526020018461ffff1681526020018669ffffffffffffffffffff1681525090806001815401808255809150509060018203906000526020600020016000909192909190915060008201518160000160006101000a81548173ffffffffffffffffffffffffffffffffffffffff021916908373ffffffffffffffffffffffffffffffffffffffff16021790555060208201518160000160146101000a81548161ffff021916908361ffff16021790555060408201518160000160166101000a81548169ffffffffffffffffffff021916908369ffffffffffffffffffff1602179055505050508473ffffffffffffffffffffffffffffffffffffffff163373ffffffffffffffffffffffffffffffffffffffff168773ffffffffffffffffffffffffffffffffffffffff167fb35ceb7181267b8ad385c9c8b08bb23bf2580e751105dd463d17602effb427168486604051808381526020018261ffff1681526020019250505060405180910390a4505050505050565b6000600180549050905090565b6060600060048054905090506060816040519080825280602002602001820160405280156119e35781602001602082028038833980820191505090505b50905060008090505b82811015611a825760048181548110611a0157fe5b9060005260206000200160000160009054906101000a900473ffffffffffffffffffffffffffffffffffffffff16828281518110611a3b57fe5b602002602001019073ffffffffffffffffffffffffffffffffffffffff16908173ffffffffffffffffffffffffffffffffffffffff168152505080806001019150506119ec565b50809250505090565b60006004805490508210611b07576040517f08c379a00000000000000000000000000000000000000000000000000000000081526004018080602001828103825260128152602001807f696e646578206f7574206f662072616e6765000000000000000000000000000081525060200191505060405180910390fd5b60048281548110611b1457fe5b9060005260206000200160000160009054906101000a900473ffffffffffffffffffffffffffffffffffffffff169050919050565b60008060006004805490508410611bc8576040517f08c379a00000000000000000000000000000000000000000000000000000000081526004018080602001828103825260128152602001807f696e646578206f7574206f662072616e6765000000000000000000000000000081525060200191505060405180910390fd5b611bd0611f92565b60048581548110611bdd57fe5b906000526020600020016040518060600160405290816000820160009054906101000a900473ffffffffffffffffffffffffffffffffffffffff1673ffffffffffffffffffffffffffffffffffffffff1673ffffffffffffffffffffffffffffffffffffffff1681526020016000820160149054906101000a900461ffff1661ffff1661ffff1681526020016000820160169054906101000a900469ffffffffffffffffffff1669ffffffffffffffffffff1669ffffffffffffffffffff16815250509050806000015181602001518260400151935093509350509193909250565b611cc76114e6565b611d39576040517f08c379a00000000000000000000000000000000000000000000000000000000081526004018080602001828103825260208152602001807f4f776e61626c653a2063616c6c6572206973206e6f7420746865206f776e657281525060200191505060405180910390fd5b611d4281611d9e565b50565b6000600260008373ffffffffffffffffffffffffffffffffffffffff1673ffffffffffffffffffffffffffffffffffffffff16815260200190815260200160002060000160009054906101000a900460ff169050919050565b600073ffffffffffffffffffffffffffffffffffffffff168173ffffffffffffffffffffffffffffffffffffffff161415611e24576040517f08c379a0000000000000000000000000000000000000000000000000000000008152600401808060200182810382526026815260200180611fff6026913960400191505060405180910390fd5b8073ffffffffffffffffffffffffffffffffffffffff166000809054906101000a900473ffffffffffffffffffffffffffffffffffffffff1673ffffffffffffffffffffffffffffffffffffffff167f8be0079c531659141344cd1fd0a4f28419497f9722a3daafe3b4186f6b6457e060405160405180910390a3806000806101000a81548173ffffffffffffffffffffffffffffffffffffffff021916908373ffffffffffffffffffffffffffffffffffffffff16021790555050565b828054600181600116156101000203166002900490600052602060002090601f016020900481019282601f10611f2357803560ff1916838001178555611f51565b82800160010185558215611f51579182015b82811115611f50578235825591602001919060010190611f35565b5b509050611f5e9190611fd9565b5090565b604051806060016040528060006002811115611f7a57fe5b8152602001600061ffff168152602001606081525090565b6040518060600160405280600073ffffffffffffffffffffffffffffffffffffffff168152602001600061ffff168152602001600069ffffffffffffffffffff1681525090565b611ffb91905b80821115611ff7576000816000905550600101611fdf565b5090565b9056fe4f776e61626c653a206e6577206f776e657220697320746865207a65726f2061646472657373666163746f727920616c726561647920657869737473206174207468652070726f766964656420666163746f727920616464726573737374617274496e646578206d757374206265206c657373207468616e20656e64496e646578666163746f7279206973206e6f742063757272656e746c792072656769737465726564a265627a7a72315820d97465d40ccd438349c87e9ba5e36767f58a9dc2a8139adcf112c9935d374bfe64736f6c634300050d0032",
  "source": "pragma solidity ^0.5.13;\n\nimport \"../helpers/openzeppelin-solidity/ownership/Ownable.sol\";\n\n\n/// @title Registry\n/// @author Stephane Gosselin (@thegostep) for Numerai Inc\n/// @dev Security contact: security@numer.ai\n/// @dev Version: 1.2.0\ncontract Registry is Ownable {\n\n    enum FactoryStatus { Unregistered, Registered, Retired }\n\n    event FactoryAdded(address owner, address factory, uint256 factoryID, bytes extraData);\n    event FactoryRetired(address owner, address factory, uint256 factoryID);\n    event InstanceRegistered(address indexed instance, address indexed factory, address indexed creator, uint256 instanceIndex, uint256 factoryID);\n\n    address[] private _factoryList;\n    mapping(address => Factory) private _factoryData;\n\n    struct Factory {\n        FactoryStatus status;\n        uint16 factoryID;\n        bytes extraData;\n    }\n\n    bytes4 private _instanceType;\n    Instance[] private _instances;\n\n    struct Instance {\n        address instance;\n        uint16 factoryID;\n        uint80 extraData;\n    }\n\n    constructor(string memory instanceType) public {\n        _instanceType = bytes4(keccak256(bytes(instanceType)));\n    }\n\n    // factory state functions\n\n    function addFactory(\n        address factory,\n        bytes calldata extraData\n    ) external onlyOwner() {\n        // get the factory object from storage.\n        Factory storage factoryData = _factoryData[factory];\n\n        // ensure that the provided factory is new.\n        require(\n            factoryData.status == FactoryStatus.Unregistered,\n            \"factory already exists at the provided factory address\"\n        );\n\n        // get the factoryID of the new factory.\n        uint16 factoryID = uint16(_factoryList.length);\n\n        // set all of the information for the new factory.\n        factoryData.status = FactoryStatus.Registered;\n        factoryData.factoryID = factoryID;\n        factoryData.extraData = extraData;\n\n        _factoryList.push(factory);\n\n        // emit an event.\n        emit FactoryAdded(msg.sender, factory, factoryID, extraData);\n    }\n\n    function retireFactory(address factory) external onlyOwner() {\n        // get the factory object from storage.\n        Factory storage factoryData = _factoryData[factory];\n\n        // ensure that the provided factory is new and not already retired.\n        require(\n            factoryData.status == FactoryStatus.Registered,\n            \"factory is not currently registered\"\n        );\n\n        // retire the factory.\n        factoryData.status = FactoryStatus.Retired;\n\n        emit FactoryRetired(msg.sender, factory, factoryData.factoryID);\n    }\n\n    // factory view functions\n\n    function getFactoryCount() external view returns (uint256 count) {\n        return _factoryList.length;\n    }\n\n    function getFactoryStatus(address factory) external view returns (FactoryStatus status) {\n        return _factoryData[factory].status;\n    }\n\n    function getFactoryID(address factory) external view returns (uint16 factoryID) {\n        return _factoryData[factory].factoryID;\n    }\n\n    function getFactoryData(address factory) external view returns (bytes memory extraData) {\n        return _factoryData[factory].extraData;\n    }\n\n    function getFactoryAddress(uint16 factoryID) external view returns (address factory) {\n        return _factoryList[factoryID];\n    }\n\n    function getFactory(address factory) public view returns (\n        FactoryStatus status,\n        uint16 factoryID,\n        bytes memory extraData\n    ) {\n        Factory memory factoryData = _factoryData[factory];\n        return (factoryData.status, factoryData.factoryID, factoryData.extraData);\n    }\n\n    function getFactories() external view returns (address[] memory factories) {\n        return _factoryList;\n    }\n\n    // Note: startIndex is inclusive, endIndex exclusive\n    function getPaginatedFactories(uint256 startIndex, uint256 endIndex) external view returns (address[] memory factories) {\n        require(startIndex < endIndex, \"startIndex must be less than endIndex\");\n        require(endIndex <= _factoryList.length, \"end index out of range\");\n\n        // initialize fixed size memory array\n        address[] memory range = new address[](endIndex - startIndex);\n\n        // Populate array with addresses in range\n        for (uint256 i = startIndex; i < endIndex; i++) {\n            range[i - startIndex] = _factoryList[i];\n        }\n\n        // return array of addresses\n        return range;\n    }\n\n    // instance state functions\n\n    function register(address instance, address creator, uint80 extraData) external {\n        (\n            FactoryStatus status,\n            uint16 factoryID,\n            // bytes memory extraData\n        ) = getFactory(msg.sender);\n\n        // ensure that the caller is a registered factory\n        require(\n            status == FactoryStatus.Registered,\n            \"factory in wrong status\"\n        );\n\n        uint256 instanceIndex = _instances.length;\n        _instances.push(\n            Instance({\n                instance: instance,\n                factoryID: factoryID,\n                extraData: extraData\n            })\n        );\n\n        emit InstanceRegistered(instance, msg.sender, creator, instanceIndex, factoryID);\n    }\n\n    // instance view functions\n\n    function getInstanceType() external view returns (bytes4 instanceType) {\n        return _instanceType;\n    }\n\n    function getInstanceCount() external view returns (uint256 count) {\n        return _instances.length;\n    }\n\n    function getInstance(uint256 index) external view returns (address instance) {\n        require(index < _instances.length, \"index out of range\");\n        return _instances[index].instance;\n    }\n\n    function getInstanceData(uint256 index) external view returns (\n        address instanceAddress,\n        uint16 factoryID,\n        uint80 extraData\n    ) {\n\n        require(index < _instances.length, \"index out of range\");\n\n        Instance memory instance = _instances[index];\n        return (instance.instance, instance.factoryID, instance.extraData);\n    }\n\n    function getInstances() external view returns (address[] memory instances) {\n        uint256 length = _instances.length;\n        address[] memory addresses = new address[](length);\n\n        // Populate array with addresses in range\n        for (uint256 i = 0; i < length; i++) {\n            addresses[i] = _instances[i].instance;\n        }\n        return addresses;\n    }\n\n    // Note: startIndex is inclusive, endIndex exclusive\n    function getPaginatedInstances(uint256 startIndex, uint256 endIndex) external view returns (address[] memory instances) {\n        require(startIndex < endIndex, \"startIndex must be less than endIndex\");\n        require(endIndex <= _instances.length, \"end index out of range\");\n\n        // initialize fixed size memory array\n        address[] memory range = new address[](endIndex - startIndex);\n\n        // Populate array with addresses in range\n        for (uint256 i = startIndex; i < endIndex; i++) {\n            range[i - startIndex] = _instances[i].instance;\n        }\n\n        // return array of addresses\n        return range;\n    }\n}\n",
  "sourcePath": "/Users/mikhail/Coding/erasure/contracts/modules/Registry.sol",
  "compiler": {
    "name": "solc",
    "version": "0.5.13+commit.5b0b510c.Emscripten.clang",
    "optimizer": false,
    "runs": 200
  },
  "schemaVersion": "2.2.0",
  "updatedAt": "2019-12-03T12:04:31.611Z"
}