{
    "contractName": "Template",
    "abi": [
        {
            "constant": true,
            "inputs": [],
            "name": "getCreator",
            "outputs": [
                {
                    "internalType": "address",
                    "name": "creator",
                    "type": "address"
                }
            ],
            "payable": false,
            "stateMutability": "view",
            "type": "function"
        },
        {
            "constant": true,
            "inputs": [],
            "name": "getFactory",
            "outputs": [
                {
                    "internalType": "address",
                    "name": "factory",
                    "type": "address"
                }
            ],
            "payable": false,
            "stateMutability": "view",
            "type": "function"
        }
    ],
    "bytecode": "0x608060405234801561001057600080fd5b5061020d806100206000396000f3fe608060405234801561001057600080fd5b50600436106100365760003560e01c80630ee2cb101461003b57806388cc58e414610085575b600080fd5b6100436100cf565b604051808273ffffffffffffffffffffffffffffffffffffffff1673ffffffffffffffffffffffffffffffffffffffff16815260200191505060405180910390f35b61008d6101af565b604051808273ffffffffffffffffffffffffffffffffffffffff1673ffffffffffffffffffffffffffffffffffffffff16815260200191505060405180910390f35b60008060009054906101000a900473ffffffffffffffffffffffffffffffffffffffff1673ffffffffffffffffffffffffffffffffffffffff16636bf71982306040518263ffffffff1660e01b8152600401808273ffffffffffffffffffffffffffffffffffffffff1673ffffffffffffffffffffffffffffffffffffffff16815260200191505060206040518083038186803b15801561016f57600080fd5b505afa158015610183573d6000803e3d6000fd5b505050506040513d602081101561019957600080fd5b8101908080519060200190929190505050905090565b60008060009054906101000a900473ffffffffffffffffffffffffffffffffffffffff1690509056fea265627a7a72315820cd54a2d4af99368a02eef4fdea0a1930cd1313a37ed8239816728902f25ea89d64736f6c634300050d0032",
    "source": "pragma solidity ^0.5.13;\n\nimport \"./iFactory.sol\";\n\n\n/// @title Template\n/// @author Stephane Gosselin (@thegostep) for Numerai Inc\n/// @dev Security contact: security@numer.ai\n/// @dev Version: 1.2.0\ncontract Template {\n\n    address private _factory;\n\n    // modifiers\n\n    modifier initializeTemplate() {\n        // set factory\n        _factory = msg.sender;\n\n        // only allow function to be `DELEGATECALL`ed from within a constructor.\n        uint32 codeSize;\n        assembly { codeSize := extcodesize(address) }\n        require(codeSize == 0, \"must be called within contract constructor\");\n        _;\n    }\n\n    // view functions\n\n    function getCreator() public view returns (address creator) {\n        // iFactory(...) would revert if _factory address is not actually a factory contract\n        return iFactory(_factory).getInstanceCreator(address(this));\n    }\n\n    function isCreator(address caller) internal view returns (bool ok) {\n        return (caller == getCreator());\n    }\n\n    function getFactory() public view returns (address factory) {\n        return _factory;\n    }\n\n}\n",
    "sourcePath": "/Users/mikhail/Coding/erasure/contracts/modules/Template.sol",
    "compiler": {
        "name": "solc",
        "version": "0.5.13+commit.5b0b510c.Emscripten.clang",
        "optimizer": false,
        "runs": 200
    },
    "schemaVersion": "2.2.0",
    "updatedAt": "2019-12-03T12:04:31.619Z"
}